:1000000014C1000040C100003EC100003CC100001E
:100010003AC1000038C1000036C1000034C1000000
:1000200032C1000030C100002EC100002CC1000010
:100030002AC1000028C1000026C1000024C1000020
:1000400022C1000020C100001EC100001CC1000030
:100050001AC1000018C1000016C100001CC4000035
:1000600012C10000E2C30000B7C300000CC10000D1
:100070000AC1000008C1000006C1000004C1000060
:1000800002C1000000C10000FEC00000FCC0000072
:10009000FAC00000F8C00000F6C00000F4C0000084
:1000A000F2C00000F0C00000EEC00000ECC0000094
:1000B000EAC00000E8C00000E6C00000E4C00000A4
:1000C000E2C00000E0C00000DEC00000DCC00000B4
:1000D000DAC00000D8C00000D6C00000D4C00000C4
:1000E000D2C0000080028302720276027C02BA0251
:1000F00087028B029102950299029F02A302A70236
:10010000BA02AD02B102B5020000210024002700AE
:100110002A002D0030003300010100000401070116
:100120000A0100002200250028002B002E003100CB
:10013000340002010000050108010B01000020004D
:100140002300260029002C002F00320000010000AF
:10015000030106010901050505050705080808084A
:10016000020202020A0A080804040404010101014F
:10017000010101010303030303030303040707074A
:100180000C0C0C0C0C0C0C0C0202020206060606EF
:10019000060606060B0B0B0B0B0B0B0B01021020BC
:1001A00020080810204010204080020102010804AD
:1001B0000201010204081020408080402010080441
:1001C000020180040201804020100804020108049A
:1001D00002010102040810204080010204081020DE
:1001E000408000000A0B02090C0D0E0807030401F1
:1001F00000000000000000000000000000000000FF
:1002000000000000000000000000000000001211CB
:1002100010000000000000000000000000000000CE
:1002200000000000000000002B0711241FBECFEFCC
:10023000D1E2DEBFCDBF00E00CBF12E0A0E0B2E033
:10024000E0E1FFE000E00BBF02C007900D92A63492
:10025000B107D9F723E0A6E4B2E001C01D92A733AD
:10026000B207E1F711E0C5E1D1E000E005C0219758
:100270000109802FFE011CD6C431D10780E0080798
:10028000B1F753D343C6BCCECF92DF92EF92FF9229
:100290000F931F93CF93DF936C017A018B01C0E022
:1002A000D0E0CE15DF0589F0D8016D918D01D60122
:1002B000ED91FC910190F081E02DC6011995892BFB
:1002C00011F47E0102C02196ECCFC701DF91CF91DE
:1002D0001F910F91FF90EF90DF90CF900895FC0158
:1002E000918D828D981761F0828DDF01A80FB11D6D
:1002F0005D968C91928D9F5F9F73928F90E0089591
:100300008FEF9FEF0895FC01918D828D981731F04A
:10031000828DE80FF11D858D90E008958FEF9FEF9E
:100320000895FC01918D228D892F90E0805C9F4F74
:10033000821B91098F73992708958FE492E0F1DF72
:1003400021E0892B09F420E0822F0895FC01848D9F
:10035000DF01A80FB11DA35ABF4F2C91848D90E0EF
:1003600001968F739927848FA689B7892C93A089CA
:10037000B1898C9180648C93938D848D981306C081
:100380000288F389E02D80818F7D80830895EF922C
:10039000FF920F931F93CF93DF93EC0181E0888F3F
:1003A0009B8D8C8D981305C0E889F989808185FD26
:1003B00023C0F62E0B8D10E00F5F1F4F0F73112718
:1003C000E02E8C8DE8120BC00FB607FCFACFE8893F
:1003D000F989808185FFF5CFCE01B8DFF2CF8B8D13
:1003E000FE01E80FF11DE35AFF4FF0820B8FEA89FF
:1003F000FB898081806207C0EE89FF896083E8897C
:10040000F98980818064808381E090E0DF91CF91E1
:100410001F910F91FF90EF900895CF93DF93EC0120
:10042000888D8823C1F0EA89FB89808185FD05C01C
:10043000A889B9898C9186FD0EC00FB607FCF5CF4F
:10044000808185FFF2CFA889B9898C9185FFEDCF96
:10045000CE017CDFE8CFDF91CF91089580E090E07E
:10046000892B19F06ADF811125C080E090E0892B8B
:1004700041F080E090E0892B21F00E940000811182
:100480001CC080E090E0892B41F080E090E0892B57
:1004900021F00E940000811113C080E090E0892BC0
:1004A000A1F080E090E0892B81F00E940000811192
:1004B0000AC008950E940000D8CF0E940000E1CF3A
:1004C0000E940000EACF0C940000089590E0FC0127
:1004D0003197E231F10508F04DC08827EE58FF4F03
:1004E0008F4FE6C4809180008F7703C08091800099
:1004F0008F7D80938000089580918000877FF9CF61
:1005000084B58F7702C084B58F7D84BD08958091B6
:10051000B0008F7703C08091B0008F7D8093B000D2
:100520000895809190008F7707C0809190008F7D13
:1005300003C080919000877F809390000895809100
:10054000A0008F7707C08091A0008F7D03C08091AD
:10055000A000877F8093A0000895809120018F776D
:1005600007C0809120018F7D03C080912001877F8B
:100570008093200108951F93CF93DF93282F30E0BD
:10058000F901EE51FE4F8491F901E456FE4FD491EA
:10059000F901EA5AFE4FC491CC23C1F0162F811104
:1005A00095DFEC2FF0E0EE0FFF1FEE5DFE4FA59103
:1005B000B4918FB7F894111105C09C91ED2FE0957F
:1005C000E92302C0EC91ED2BEC938FBFDF91CF912B
:1005D0001F910895CF93DF9390E0FC01E456FE4F06
:1005E0002491FC01EA5AFE4F8491882361F190E046
:1005F000880F991FFC01E85FFE4FC591D491FC0163
:10060000EE5DFE4FA591B491611109C09FB7F894BA
:100610008881209582238883EC912E230BC0623041
:1006200061F49FB7F8943881822F80958323888363
:10063000EC912E2B2C939FBF06C08FB7F894E881C6
:100640002E2B28838FBFDF91CF9108953FB7F89469
:1006500080914B0290914C02A0914D02B0914E02BC
:1006600026B5A89B05C02F3F19F00196A11DB11D0D
:100670003FBFBA2FA92F982F8827820F911DA11D48
:10068000B11DBC01CD0142E0660F771F881F991F85
:100690004A95D1F708958F929F92AF92BF92CF92D1
:1006A000DF92EF92FF926B017C01D0DF4B015C0186
:1006B000C114D104E104F104E9F0C8DFDC01CB018D
:1006C00088199909AA09BB09883E9340A105B1057B
:1006D00078F321E0C21AD108E108F10888EE880E0B
:1006E00083E0981EA11CB11CC114D104E104F104E3
:1006F00021F7DECFFF90EF90DF90CF90BF90AF90CB
:100700009F908F9008952FB7F89460914702709151
:1007100048028091490290914A022FBF0895D0D398
:100720006115710579F0FB0101900020E9F731971F
:10073000AF01461B570BDC01ED91FC910280F38168
:10074000E02D199480E090E008954F925F926F92AF
:100750007F92EF92FF920F931F93CF93DF93CDB7CA
:10076000DEB7A1970FB6F894DEBF0FBECDBF7C01F8
:10077000FA01CB0119A2223008F42AE08E010F5DA4
:100780001F4F422E512C612C712CBF01A3019201ED
:100790009BD3F901CA01015011096A3014F4605D5C
:1007A00001C0695CD8016C93232B242B252B69F79E
:1007B000B801C701B5DFA1960FB6F894DEBF0FBE32
:1007C000CDBFDF91CF911F910F91FF90EF907F9060
:1007D0006F905F904F9008951F920F920FB60F92F7
:1007E00011240BB60F922F933F934F935F936F9308
:1007F0007F938F939F93AF93BF93EF93FF938FE478
:1008000092E0A4DDFF91EF91BF91AF919F918F9105
:100810007F916F915F914F913F912F910F900BBE00
:100820000F900FBE0F901F9018951F920F920FB64A
:100830000F9211240BB60F922F938F939F93EF93E8
:10084000FF93E0915F02F09160028081E091650288
:10085000F091660282FD12C09081809168028F5FE4
:100860008F7320916902821751F0E0916802F0E0E5
:10087000E15BFD4F958F8093680201C08081FF91FD
:10088000EF919F918F912F910F900BBE0F900FBE04
:100890000F901F9018951F920F920FB60F92112470
:1008A0002F933F938F939F93AF93BF938091470272
:1008B00090914802A0914902B0914A0230914602BB
:1008C00023E0230F2D3720F40196A11DB11D05C093
:1008D00026E8230F0296A11DB11D209346028093A6
:1008E000470290934802A0934902B0934A02809134
:1008F0004B0290914C02A0914D02B0914E02019694
:10090000A11DB11D80934B0290934C02A0934D0208
:10091000B0934E02BF91AF919F918F913F912F91D4
:100920000F900FBE0F901F901895789484B5826039
:1009300084BD84B5816084BD85B5826085BD85B583
:10094000816085BD80916E00816080936E00109201
:10095000810080918100826080938100809181007C
:10096000816080938100809180008160809380000D
:100970008091B10084608093B1008091B00081606B
:100980008093B0008091910082608093910080916B
:1009900091008160809391008091900081608093AC
:1009A00090008091A10082608093A1008091A100BD
:1009B00081608093A1008091A00081608093A0005D
:1009C00080912101826080932101809121018160C9
:1009D000809321018091200181608093200180918A
:1009E0007A00846080937A0080917A00826080939C
:1009F0007A0080917A00816080937A0080917A00F9
:100A0000806880937A001092C10010922B0310929C
:100A10002C0310922D0310922E031092F9021092C3
:100A2000FA021092FB021092FC0260ED77E080E087
:100A300090E031DE8FE492E090932A0380932903C3
:100A4000E0915F02F091600282E08083E0915B02BE
:100A5000F0915C021082E0915D02F0915E0280E113
:100A6000808310926702E0916302F091640286E055
:100A70008083E0916102F0916202808180618083D5
:100A8000E0916102F0916202808188608083E09150
:100A90006102F0916202808180688083E09161024E
:100AA000F091620280818F7D80832DDE0091F902BA
:100AB0001091FA022091FB023091FC02DC01CB0183
:100AC000801B910BA20BB30BC297A105B10530F4AB
:100AD00063E070E080E090E0DEDDE7CF14DE60935D
:100AE000F9027093FA028093FB029093FC0260E19A
:100AF00072E08091290390912A0312DE6AE070E08F
:100B000080E090E0C8DD81E08093FD0262E082E059
:100B100061DD61E084E05EDD61E085E05BDD61E098
:100B200084E029DD61E085E026DDC4EED1E00EE958
:100B300011E038E5E32E31E0F32EDD24D394E3DD3C
:100B4000672B682B692B09F0CFC0DDDD62307105A2
:100B50008105910508F0C8C035C0D5DD6093F90264
:100B60007093FA028093FB029093FC0262E272E0BF
:100B70008091290390912A03D3DD6AE272E080918B
:100B8000290390912A03CCDDBEDDAB01BC012AE034
:100B90008091290390912A03D8DD6CE272E0809164
:100BA000290390912A03BCDD65E070E080E090E0CD
:100BB00072DD6AE070E080E090E06DDD8091FD0222
:100BC0008111E9C0A0DD4B015C01FE018491F801B7
:100BD0007490F701C490CC2009F430C1811176DC07
:100BE0008C2D90E0880F991F845C9E4FFC01A5918D
:100BF000B4918C91782209F421C18091F302882369
:100C000079F060E084E0B7DCD092F1028092ED02EE
:100C10009092EE02A092EF02B092F0021092F302D4
:100C20008091F202882321F18091F4029091F502E3
:100C3000A091F602B091F702A5019401281B390B8F
:100C40004A0B5B0BDA01C901883B9B40A105B1054A
:100C500078F060E085E08FDCD092EC028092ED02CB
:100C60009092EE02A092EF02B092F0021092F20285
:100C70008091F1028823D1F08091ED029091EE02F3
:100C8000A091EF02B091F002A5019401281B390B4D
:100C90004A0B5B0BDA01C90188389341A105B10504
:100CA00028F01092F10261E084E065DC8091EC02B2
:100CB0008823C1F08091ED029091EE02A091EF02A5
:100CC000B091F002881A990AAA0ABB0A40E4841675
:100CD0004FE19406A104B10428F01092EC0261E007
:100CE00085E049DCBBDB2BCF0EDD609333037093D3
:100CF0003403809335039093360380902F039090B4
:100D00003003A0903103B0903203681579058A054D
:100D10009B0540F460932F0370933003809331035D
:100D20009093320380902F0390903003A090310372
:100D3000B09032039B01AC01281939094A095B09BB
:100D400049015A013AEF83169104A104B10408F451
:100D500039CF60932F0370933003809331039093C6
:100D60003203D1DC8090F9029090FA02A090FB024D
:100D7000B090FC02DC01CB0188199909AA09BB09D2
:100D8000C297A105B10508F0E8CE63E070E080E00D
:100D900090E081DCE6CF8091290390912A03DC0169
:100DA000ED91FC910480F581E02D1995892B99F343
:100DB0008091290390912A03DC01ED91FC9104803C
:100DC000F581E02D1995181619060CF0FBCE8091CF
:100DD000290390912A03DC01ED91FC910680F781B3
:100DE000E02D199599278336910551F086379105A5
:100DF00009F4E8CE88359105D9F61092FD02D8CFD6
:100E000065E372E08091290390912A0389DC2AE04E
:100E100041E050E060E070E08091290390912A0366
:100E200094DC6CE372E08091290390912A0378DCD2
:100E300062E370E080E090E02EDCC4CE8092F402A9
:100E40009092F502A092F602B092F702D092F302CD
:100E5000D092F202D2CEEFE4F2E01382128288EE58
:100E600093E0A0E0B0E084839583A683B78384E019
:100E700092E09183808385EC90E09587848784EC71
:100E800090E09787868780EC90E0918B808B81EC57
:100E900090E0938B828B82EC90E0958B848B86EC38
:100EA00090E0978B868B118E128E138E148E089580
:100EB000EE0FFF1F881F8BBF0790F691E02D19944E
:100EC00081E090E0F89422C0A1E21A2EAA1BBB1B7D
:100ED000FD010DC0AA1FBB1FEE1FFF1FA217B30706
:100EE000E407F50720F0A21BB30BE40BF50B661F1C
:100EF000771F881F991F1A9469F7609570958095E0
:100F000090959B01AC01BD01CF010895F894FFCFEE
:100F100000000000C701440191016F0183010D022F
:100F2000564D4450565F317C315F564D4450560DFE
:100F30000A00564D4450455F31007C005F564D44D9
:100F400050450D0A00564D4450435F005F564D44D6
:060F500050430D0A0000F1
:00000001FF
